:040000008031A7287C
:100008007E1480312000911124001108FA009A28EA
:10001800161B1128750891009828F401A528F20BE1
:1000280046283B287508F0007A08F300432873082F
:10003800F600F701F8007708F9007008F6000730B5
:10004800F701F635F70D890B25287608F8077708A4
:10005800F93D780886007908870075088100F80A54
:100068000319F90A43282000A301A30A43287108A9
:10007800003A03191628013A03191B2837282400C7
:10008800151611287A08F50098281513941AA5282A
:100098007A36F1000730F1057A1856280230F40054
:1000A800F2009828F401F40A8C287008910073086B
:1000B8007D287308F600F701F8007708F900700842
:1000C800F6000730F701F635F70D890B6728760833
:1000D800F8077708F93D780886007908870001084D
:1000E8009100F80A0319F90A780886007908870048
:1000F8000108F5009728200023082400910020001B
:10010800A3019728FD3091002000A301A30A972896
:100118007108003A03195928013A03195D28063A6B
:1001280003197F28862824001516A5287408003A84
:1001380003194928013A03190C28033A031913280B
:1001480049287E1009008031A928F001F101F20147
:10015800F301F401F501A3017E102000B328D52096
:100168008031ED2080311E2180312000A10A031941
:10017800A20A2208803AA000A7302002031DC62840
:1001880011302102031CD0282000A101A201220065
:1001980001308D0680308C0621009D149D1CB928E5
:1001A800D22822008C018D018E01243021008C0080
:1001B8001E308D00BC308E00043023008C001E30B1
:1001C8008D00203024008C0001308D00A0308E007E
:1001D80008006A30210099008B018B100B12C23085
:1001E8002A00930091018E3022009E001F08C73913
:1001F80008389F001F08F83903389F008830970097
:10020800A83098009A309900213021009D00703064
:100218009E000F309F00F0302400930010309200B1
:1002280026309500161420009111210091150B1706
:100238008B170800300092019301013094000330BD
:100248009500960101309700083098009901013017
:100258009A0009309B0001309C009D019E019F017E
:10026800A100A2018030A300A4019F30A500A6012F
:100278000330A900AA00AD012030AB00AC01033067
:0C028800AE00AF01A001B13091000800F1
:020000040001F9
:04000E00E4C1FFDE6C
:00000001FF
